{
  "_format": "hh-sol-artifact-1",
  "contractName": "SignedMessage",
  "sourceName": "contracts/SignedMessage.sol",
  "abi": [
    {
      "inputs": [],
      "stateMutability": "nonpayable",
      "type": "constructor"
    },
    {
      "anonymous": false,
      "inputs": [
        {
          "indexed": true,
          "internalType": "address",
          "name": "from",
          "type": "address"
        },
        {
          "indexed": false,
          "internalType": "uint256",
          "name": "timestamp",
          "type": "uint256"
        },
        {
          "indexed": false,
          "internalType": "string",
          "name": "message",
          "type": "string"
        }
      ],
      "name": "NewMessage",
      "type": "event"
    },
    {
      "inputs": [],
      "name": "getAllMessage",
      "outputs": [
        {
          "components": [
            {
              "internalType": "address",
              "name": "user",
              "type": "address"
            },
            {
              "internalType": "string",
              "name": "message",
              "type": "string"
            },
            {
              "internalType": "uint256",
              "name": "timestamp",
              "type": "uint256"
            }
          ],
          "internalType": "struct SignedMessage.Message[]",
          "name": "",
          "type": "tuple[]"
        }
      ],
      "stateMutability": "view",
      "type": "function"
    },
    {
      "inputs": [],
      "name": "getLastMessage",
      "outputs": [
        {
          "components": [
            {
              "internalType": "address",
              "name": "user",
              "type": "address"
            },
            {
              "internalType": "string",
              "name": "message",
              "type": "string"
            },
            {
              "internalType": "uint256",
              "name": "timestamp",
              "type": "uint256"
            }
          ],
          "internalType": "struct SignedMessage.Message",
          "name": "",
          "type": "tuple"
        }
      ],
      "stateMutability": "view",
      "type": "function"
    },
    {
      "inputs": [
        {
          "internalType": "string",
          "name": "_message",
          "type": "string"
        }
      ],
      "name": "sendMessage",
      "outputs": [],
      "stateMutability": "nonpayable",
      "type": "function"
    },
    {
      "inputs": [
        {
          "internalType": "bytes",
          "name": "_sign",
          "type": "bytes"
        },
        {
          "internalType": "string",
          "name": "_mesg",
          "type": "string"
        },
        {
          "internalType": "address",
          "name": "_address",
          "type": "address"
        }
      ],
      "name": "verifyAddressFromTypedSign",
      "outputs": [
        {
          "internalType": "bool",
          "name": "",
          "type": "bool"
        }
      ],
      "stateMutability": "pure",
      "type": "function"
    }
  ],
  "bytecode": "0x60806040523480156200001157600080fd5b50600060405180606001604052803373ffffffffffffffffffffffffffffffffffffffff1681526020016040518060400160405280600e81526020017f636f64696e67206973206c696665000000000000000000000000000000000000815250815260200142815250908060018154018082558091505060019003906000526020600020906003020160009091909190915060008201518160000160006101000a81548173ffffffffffffffffffffffffffffffffffffffff021916908373ffffffffffffffffffffffffffffffffffffffff16021790555060208201518160010190816200010191906200038e565b5060408201518160020155505062000475565b600081519050919050565b7f4e487b7100000000000000000000000000000000000000000000000000000000600052604160045260246000fd5b7f4e487b7100000000000000000000000000000000000000000000000000000000600052602260045260246000fd5b600060028204905060018216806200019657607f821691505b602082108103620001ac57620001ab6200014e565b5b50919050565b60008190508160005260206000209050919050565b60006020601f8301049050919050565b600082821b905092915050565b600060088302620002167fffffffffffffffffffffffffffffffffffffffffffffffffffffffffffffffff82620001d7565b620002228683620001d7565b95508019841693508086168417925050509392505050565b6000819050919050565b6000819050919050565b60006200026f6200026962000263846200023a565b62000244565b6200023a565b9050919050565b6000819050919050565b6200028b836200024e565b620002a36200029a8262000276565b848454620001e4565b825550505050565b600090565b620002ba620002ab565b620002c781848462000280565b505050565b5b81811015620002ef57620002e3600082620002b0565b600181019050620002cd565b5050565b601f8211156200033e576200030881620001b2565b6200031384620001c7565b8101602085101562000323578190505b6200033b6200033285620001c7565b830182620002cc565b50505b505050565b600082821c905092915050565b6000620003636000198460080262000343565b1980831691505092915050565b60006200037e838362000350565b9150826002028217905092915050565b620003998262000114565b67ffffffffffffffff811115620003b557620003b46200011f565b5b620003c182546200017d565b620003ce828285620002f3565b600060209050601f831160018114620004065760008415620003f1578287015190505b620003fd858262000370565b8655506200046d565b601f1984166200041686620001b2565b60005b82811015620004405784890151825560018201915060208501945060208101905062000419565b868310156200046057848901516200045c601f89168262000350565b8355505b6001600288020188555050505b505050505050565b61135b80620004856000396000f3fe608060405234801561001057600080fd5b506004361061004c5760003560e01c8063469c811014610051578063526bf76e1461006d5780638f8586d21461008b578063afa2e4fb146100a9575b600080fd5b61006b6004803603810190610066919061084e565b6100d9565b005b610075610235565b60405161008291906109c0565b60405180910390f35b610093610378565b6040516100a09190610af4565b60405180910390f35b6100c360048036038101906100be9190610be3565b6104c9565b6040516100d09190610c89565b60405180910390f35b608d81511061011d576040517f08c379a000000000000000000000000000000000000000000000000000000000815260040161011490610d01565b60405180910390fd5b600060405180606001604052803373ffffffffffffffffffffffffffffffffffffffff16815260200183815260200142815250908060018154018082558091505060019003906000526020600020906003020160009091909190915060008201518160000160006101000a81548173ffffffffffffffffffffffffffffffffffffffff021916908373ffffffffffffffffffffffffffffffffffffffff16021790555060208201518160010190816101d59190610f2d565b506040820151816002015550503373ffffffffffffffffffffffffffffffffffffffff167f0ff94fec3112de81726d79117e091c7c9d47da8a38c73e8cec7ee350a61898a6428360405161022a929190611047565b60405180910390a250565b61023d6106bd565b6000600160008054905061025191906110a6565b905060008181548110610267576102666110da565b5b90600052602060002090600302016040518060600160405290816000820160009054906101000a900473ffffffffffffffffffffffffffffffffffffffff1673ffffffffffffffffffffffffffffffffffffffff1673ffffffffffffffffffffffffffffffffffffffff1681526020016001820180546102e690610d50565b80601f016020809104026020016040519081016040528092919081815260200182805461031290610d50565b801561035f5780601f106103345761010080835404028352916020019161035f565b820191906000526020600020905b81548152906001019060200180831161034257829003601f168201915b5050505050815260200160028201548152505091505090565b60606000805480602002602001604051908101604052809291908181526020016000905b828210156104c057838290600052602060002090600302016040518060600160405290816000820160009054906101000a900473ffffffffffffffffffffffffffffffffffffffff1673ffffffffffffffffffffffffffffffffffffffff1673ffffffffffffffffffffffffffffffffffffffff16815260200160018201805461042590610d50565b80601f016020809104026020016040519081016040528092919081815260200182805461045190610d50565b801561049e5780601f106104735761010080835404028352916020019161049e565b820191906000526020600020905b81548152906001019060200180831161048157829003601f168201915b505050505081526020016002820154815250508152602001906001019061039c565b50505050905090565b6000806040516020016104db90611160565b60405160208183030381529060405280519060200120905060008460405160200161050691906111a6565b6040516020818303038152906040528051906020012090508373ffffffffffffffffffffffffffffffffffffffff16610567838360405160200161054b9291906111e8565b6040516020818303038152906040528051906020012088610589565b73ffffffffffffffffffffffffffffffffffffffff1614925050509392505050565b60008060008061059885610644565b809450819550829350505050601b8160ff1610156105c057601b816105bd9190611221565b90505b601b8160ff16141580156105d85750601c8160ff1614155b156105e9576000935050505061063e565b6001868285856040516000815260200160405260405161060c9493929190611274565b6020604051602081039080840390855afa15801561062e573d6000803e3d6000fd5b5050506020604051035193505050505b92915050565b6000806000604184511461068d576040517f08c379a000000000000000000000000000000000000000000000000000000000815260040161068490611305565b60405180910390fd5b60008060006020870151925060408701519150606087015160001a90508083839550955095505050509193909250565b6040518060600160405280600073ffffffffffffffffffffffffffffffffffffffff16815260200160608152602001600081525090565b6000604051905090565b600080fd5b600080fd5b600080fd5b600080fd5b6000601f19601f8301169050919050565b7f4e487b7100000000000000000000000000000000000000000000000000000000600052604160045260246000fd5b61075b82610712565b810181811067ffffffffffffffff8211171561077a57610779610723565b5b80604052505050565b600061078d6106f4565b90506107998282610752565b919050565b600067ffffffffffffffff8211156107b9576107b8610723565b5b6107c282610712565b9050602081019050919050565b82818337600083830152505050565b60006107f16107ec8461079e565b610783565b90508281526020810184848401111561080d5761080c61070d565b5b6108188482856107cf565b509392505050565b600082601f83011261083557610834610708565b5b81356108458482602086016107de565b91505092915050565b600060208284031215610864576108636106fe565b5b600082013567ffffffffffffffff81111561088257610881610703565b5b61088e84828501610820565b91505092915050565b600073ffffffffffffffffffffffffffffffffffffffff82169050919050565b60006108c282610897565b9050919050565b6108d2816108b7565b82525050565b600081519050919050565b600082825260208201905092915050565b60005b838110156109125780820151818401526020810190506108f7565b60008484015250505050565b6000610929826108d8565b61093381856108e3565b93506109438185602086016108f4565b61094c81610712565b840191505092915050565b6000819050919050565b61096a81610957565b82525050565b600060608301600083015161098860008601826108c9565b50602083015184820360208601526109a0828261091e565b91505060408301516109b56040860182610961565b508091505092915050565b600060208201905081810360008301526109da8184610970565b905092915050565b600081519050919050565b600082825260208201905092915050565b6000819050602082019050919050565b6000606083016000830151610a2660008601826108c9565b5060208301518482036020860152610a3e828261091e565b9150506040830151610a536040860182610961565b508091505092915050565b6000610a6a8383610a0e565b905092915050565b6000602082019050919050565b6000610a8a826109e2565b610a9481856109ed565b935083602082028501610aa6856109fe565b8060005b85811015610ae25784840389528151610ac38582610a5e565b9450610ace83610a72565b925060208a01995050600181019050610aaa565b50829750879550505050505092915050565b60006020820190508181036000830152610b0e8184610a7f565b905092915050565b600067ffffffffffffffff821115610b3157610b30610723565b5b610b3a82610712565b9050602081019050919050565b6000610b5a610b5584610b16565b610783565b905082815260208101848484011115610b7657610b7561070d565b5b610b818482856107cf565b509392505050565b600082601f830112610b9e57610b9d610708565b5b8135610bae848260208601610b47565b91505092915050565b610bc0816108b7565b8114610bcb57600080fd5b50565b600081359050610bdd81610bb7565b92915050565b600080600060608486031215610bfc57610bfb6106fe565b5b600084013567ffffffffffffffff811115610c1a57610c19610703565b5b610c2686828701610b89565b935050602084013567ffffffffffffffff811115610c4757610c46610703565b5b610c5386828701610820565b9250506040610c6486828701610bce565b9150509250925092565b60008115159050919050565b610c8381610c6e565b82525050565b6000602082019050610c9e6000830184610c7a565b92915050565b600082825260208201905092915050565b7f6d65737361676520746f206c6f6e670000000000000000000000000000000000600082015250565b6000610ceb600f83610ca4565b9150610cf682610cb5565b602082019050919050565b60006020820190508181036000830152610d1a81610cde565b9050919050565b7f4e487b7100000000000000000000000000000000000000000000000000000000600052602260045260246000fd5b60006002820490506001821680610d6857607f821691505b602082108103610d7b57610d7a610d21565b5b50919050565b60008190508160005260206000209050919050565b60006020601f8301049050919050565b600082821b905092915050565b600060088302610de37fffffffffffffffffffffffffffffffffffffffffffffffffffffffffffffffff82610da6565b610ded8683610da6565b95508019841693508086168417925050509392505050565b6000819050919050565b6000610e2a610e25610e2084610957565b610e05565b610957565b9050919050565b6000819050919050565b610e4483610e0f565b610e58610e5082610e31565b848454610db3565b825550505050565b600090565b610e6d610e60565b610e78818484610e3b565b505050565b5b81811015610e9c57610e91600082610e65565b600181019050610e7e565b5050565b601f821115610ee157610eb281610d81565b610ebb84610d96565b81016020851015610eca578190505b610ede610ed685610d96565b830182610e7d565b50505b505050565b600082821c905092915050565b6000610f0460001984600802610ee6565b1980831691505092915050565b6000610f1d8383610ef3565b9150826002028217905092915050565b610f36826108d8565b67ffffffffffffffff811115610f4f57610f4e610723565b5b610f598254610d50565b610f64828285610ea0565b600060209050601f831160018114610f975760008415610f85578287015190505b610f8f8582610f11565b865550610ff7565b601f198416610fa586610d81565b60005b82811015610fcd57848901518255600182019150602085019450602081019050610fa8565b86831015610fea5784890151610fe6601f891682610ef3565b8355505b6001600288020188555050505b505050505050565b61100881610957565b82525050565b6000611019826108d8565b6110238185610ca4565b93506110338185602086016108f4565b61103c81610712565b840191505092915050565b600060408201905061105c6000830185610fff565b818103602083015261106e818461100e565b90509392505050565b7f4e487b7100000000000000000000000000000000000000000000000000000000600052601160045260246000fd5b60006110b182610957565b91506110bc83610957565b92508282039050818111156110d4576110d3611077565b5b92915050565b7f4e487b7100000000000000000000000000000000000000000000000000000000600052603260045260246000fd5b600081905092915050565b7f737472696e67204d657373616765000000000000000000000000000000000000600082015250565b600061114a600e83611109565b915061115582611114565b600e82019050919050565b600061116b8261113d565b9150819050919050565b6000611180826108d8565b61118a8185611109565b935061119a8185602086016108f4565b80840191505092915050565b60006111b28284611175565b915081905092915050565b6000819050919050565b6000819050919050565b6111e26111dd826111bd565b6111c7565b82525050565b60006111f482856111d1565b60208201915061120482846111d1565b6020820191508190509392505050565b600060ff82169050919050565b600061122c82611214565b915061123783611214565b9250828201905060ff8111156112505761124f611077565b5b92915050565b61125f816111bd565b82525050565b61126e81611214565b82525050565b60006080820190506112896000830187611256565b6112966020830186611265565b6112a36040830185611256565b6112b06060830184611256565b95945050505050565b7f696e76616c6964207369676e6174757265206c656e6774680000000000000000600082015250565b60006112ef601883610ca4565b91506112fa826112b9565b602082019050919050565b6000602082019050818103600083015261131e816112e2565b905091905056fea2646970667358221220a49866fc39347483d1ae95ac2b1fcf7c2cb52027f20174844b4a444e2daa3d1364736f6c63430008110033",
  "linkReferences": {},
  "deployedLinkReferences": {}
}