{
  "_format": "hh-sol-artifact-1",
  "contractName": "SignedMessage",
  "sourceName": "contracts/SignedMessage.sol",
  "abi": [
    {
      "inputs": [],
      "stateMutability": "nonpayable",
      "type": "constructor"
    },
    {
      "anonymous": false,
      "inputs": [
        {
          "indexed": true,
          "internalType": "address",
          "name": "from",
          "type": "address"
        },
        {
          "indexed": false,
          "internalType": "uint256",
          "name": "timestamp",
          "type": "uint256"
        },
        {
          "indexed": false,
          "internalType": "string",
          "name": "message",
          "type": "string"
        }
      ],
      "name": "NewMessage",
      "type": "event"
    },
    {
      "inputs": [],
      "name": "getAllMessage",
      "outputs": [
        {
          "components": [
            {
              "internalType": "address",
              "name": "user",
              "type": "address"
            },
            {
              "internalType": "string",
              "name": "message",
              "type": "string"
            },
            {
              "internalType": "uint256",
              "name": "timestamp",
              "type": "uint256"
            }
          ],
          "internalType": "struct SignedMessage.Message[]",
          "name": "",
          "type": "tuple[]"
        }
      ],
      "stateMutability": "view",
      "type": "function"
    },
    {
      "inputs": [],
      "name": "getLastMessage",
      "outputs": [
        {
          "components": [
            {
              "internalType": "address",
              "name": "user",
              "type": "address"
            },
            {
              "internalType": "string",
              "name": "message",
              "type": "string"
            },
            {
              "internalType": "uint256",
              "name": "timestamp",
              "type": "uint256"
            }
          ],
          "internalType": "struct SignedMessage.Message",
          "name": "",
          "type": "tuple"
        }
      ],
      "stateMutability": "view",
      "type": "function"
    },
    {
      "inputs": [
        {
          "internalType": "string",
          "name": "_message",
          "type": "string"
        }
      ],
      "name": "sendMessage",
      "outputs": [],
      "stateMutability": "nonpayable",
      "type": "function"
    },
    {
      "inputs": [
        {
          "internalType": "bytes",
          "name": "_sign",
          "type": "bytes"
        },
        {
          "internalType": "string",
          "name": "_mesg",
          "type": "string"
        },
        {
          "internalType": "address",
          "name": "_address",
          "type": "address"
        }
      ],
      "name": "verifyAddressFromTypedSign",
      "outputs": [
        {
          "internalType": "bool",
          "name": "",
          "type": "bool"
        }
      ],
      "stateMutability": "pure",
      "type": "function"
    }
  ],
  "bytecode": "0x60806040523480156200001157600080fd5b50600060405180606001604052803373ffffffffffffffffffffffffffffffffffffffff1681526020016040518060400160405280600e81526020017f636f64696e67206973206c696665000000000000000000000000000000000000815250815260200142815250908060018154018082558091505060019003906000526020600020906003020160009091909190915060008201518160000160006101000a81548173ffffffffffffffffffffffffffffffffffffffff021916908373ffffffffffffffffffffffffffffffffffffffff16021790555060208201518160010190816200010191906200038e565b5060408201518160020155505062000475565b600081519050919050565b7f4e487b7100000000000000000000000000000000000000000000000000000000600052604160045260246000fd5b7f4e487b7100000000000000000000000000000000000000000000000000000000600052602260045260246000fd5b600060028204905060018216806200019657607f821691505b602082108103620001ac57620001ab6200014e565b5b50919050565b60008190508160005260206000209050919050565b60006020601f8301049050919050565b600082821b905092915050565b600060088302620002167fffffffffffffffffffffffffffffffffffffffffffffffffffffffffffffffff82620001d7565b620002228683620001d7565b95508019841693508086168417925050509392505050565b6000819050919050565b6000819050919050565b60006200026f6200026962000263846200023a565b62000244565b6200023a565b9050919050565b6000819050919050565b6200028b836200024e565b620002a36200029a8262000276565b848454620001e4565b825550505050565b600090565b620002ba620002ab565b620002c781848462000280565b505050565b5b81811015620002ef57620002e3600082620002b0565b600181019050620002cd565b5050565b601f8211156200033e576200030881620001b2565b6200031384620001c7565b8101602085101562000323578190505b6200033b6200033285620001c7565b830182620002cc565b50505b505050565b600082821c905092915050565b6000620003636000198460080262000343565b1980831691505092915050565b60006200037e838362000350565b9150826002028217905092915050565b620003998262000114565b67ffffffffffffffff811115620003b557620003b46200011f565b5b620003c182546200017d565b620003ce828285620002f3565b600060209050601f831160018114620004065760008415620003f1578287015190505b620003fd858262000370565b8655506200046d565b601f1984166200041686620001b2565b60005b82811015620004405784890151825560018201915060208501945060208101905062000419565b868310156200046057848901516200045c601f89168262000350565b8355505b6001600288020188555050505b505050505050565b6112ab80620004856000396000f3fe608060405234801561001057600080fd5b506004361061004c5760003560e01c8063469c811014610051578063526bf76e1461006d5780638f8586d21461008b578063afa2e4fb146100a9575b600080fd5b61006b6004803603810190610066919061080a565b6100d9565b005b6100756101f1565b604051610082919061097c565b60405180910390f35b610093610334565b6040516100a09190610ab0565b60405180910390f35b6100c360048036038101906100be9190610b9f565b610485565b6040516100d09190610c45565b60405180910390f35b600060405180606001604052803373ffffffffffffffffffffffffffffffffffffffff16815260200183815260200142815250908060018154018082558091505060019003906000526020600020906003020160009091909190915060008201518160000160006101000a81548173ffffffffffffffffffffffffffffffffffffffff021916908373ffffffffffffffffffffffffffffffffffffffff16021790555060208201518160010190816101919190610e6c565b506040820151816002015550503373ffffffffffffffffffffffffffffffffffffffff167f0ff94fec3112de81726d79117e091c7c9d47da8a38c73e8cec7ee350a61898a642836040516101e6929190610f97565b60405180910390a250565b6101f9610679565b6000600160008054905061020d9190610ff6565b9050600081815481106102235761022261102a565b5b90600052602060002090600302016040518060600160405290816000820160009054906101000a900473ffffffffffffffffffffffffffffffffffffffff1673ffffffffffffffffffffffffffffffffffffffff1673ffffffffffffffffffffffffffffffffffffffff1681526020016001820180546102a290610c8f565b80601f01602080910402602001604051908101604052809291908181526020018280546102ce90610c8f565b801561031b5780601f106102f05761010080835404028352916020019161031b565b820191906000526020600020905b8154815290600101906020018083116102fe57829003601f168201915b5050505050815260200160028201548152505091505090565b60606000805480602002602001604051908101604052809291908181526020016000905b8282101561047c57838290600052602060002090600302016040518060600160405290816000820160009054906101000a900473ffffffffffffffffffffffffffffffffffffffff1673ffffffffffffffffffffffffffffffffffffffff1673ffffffffffffffffffffffffffffffffffffffff1681526020016001820180546103e190610c8f565b80601f016020809104026020016040519081016040528092919081815260200182805461040d90610c8f565b801561045a5780601f1061042f5761010080835404028352916020019161045a565b820191906000526020600020905b81548152906001019060200180831161043d57829003601f168201915b5050505050815260200160028201548152505081526020019060010190610358565b50505050905090565b600080604051602001610497906110b0565b6040516020818303038152906040528051906020012090506000846040516020016104c291906110f6565b6040516020818303038152906040528051906020012090508373ffffffffffffffffffffffffffffffffffffffff166105238383604051602001610507929190611138565b6040516020818303038152906040528051906020012088610545565b73ffffffffffffffffffffffffffffffffffffffff1614925050509392505050565b60008060008061055485610600565b809450819550829350505050601b8160ff16101561057c57601b816105799190611171565b90505b601b8160ff16141580156105945750601c8160ff1614155b156105a557600093505050506105fa565b600186828585604051600081526020016040526040516105c894939291906111c4565b6020604051602081039080840390855afa1580156105ea573d6000803e3d6000fd5b5050506020604051035193505050505b92915050565b60008060006041845114610649576040517f08c379a000000000000000000000000000000000000000000000000000000000815260040161064090611255565b60405180910390fd5b60008060006020870151925060408701519150606087015160001a90508083839550955095505050509193909250565b6040518060600160405280600073ffffffffffffffffffffffffffffffffffffffff16815260200160608152602001600081525090565b6000604051905090565b600080fd5b600080fd5b600080fd5b600080fd5b6000601f19601f8301169050919050565b7f4e487b7100000000000000000000000000000000000000000000000000000000600052604160045260246000fd5b610717826106ce565b810181811067ffffffffffffffff82111715610736576107356106df565b5b80604052505050565b60006107496106b0565b9050610755828261070e565b919050565b600067ffffffffffffffff821115610775576107746106df565b5b61077e826106ce565b9050602081019050919050565b82818337600083830152505050565b60006107ad6107a88461075a565b61073f565b9050828152602081018484840111156107c9576107c86106c9565b5b6107d484828561078b565b509392505050565b600082601f8301126107f1576107f06106c4565b5b813561080184826020860161079a565b91505092915050565b6000602082840312156108205761081f6106ba565b5b600082013567ffffffffffffffff81111561083e5761083d6106bf565b5b61084a848285016107dc565b91505092915050565b600073ffffffffffffffffffffffffffffffffffffffff82169050919050565b600061087e82610853565b9050919050565b61088e81610873565b82525050565b600081519050919050565b600082825260208201905092915050565b60005b838110156108ce5780820151818401526020810190506108b3565b60008484015250505050565b60006108e582610894565b6108ef818561089f565b93506108ff8185602086016108b0565b610908816106ce565b840191505092915050565b6000819050919050565b61092681610913565b82525050565b60006060830160008301516109446000860182610885565b506020830151848203602086015261095c82826108da565b9150506040830151610971604086018261091d565b508091505092915050565b60006020820190508181036000830152610996818461092c565b905092915050565b600081519050919050565b600082825260208201905092915050565b6000819050602082019050919050565b60006060830160008301516109e26000860182610885565b50602083015184820360208601526109fa82826108da565b9150506040830151610a0f604086018261091d565b508091505092915050565b6000610a2683836109ca565b905092915050565b6000602082019050919050565b6000610a468261099e565b610a5081856109a9565b935083602082028501610a62856109ba565b8060005b85811015610a9e5784840389528151610a7f8582610a1a565b9450610a8a83610a2e565b925060208a01995050600181019050610a66565b50829750879550505050505092915050565b60006020820190508181036000830152610aca8184610a3b565b905092915050565b600067ffffffffffffffff821115610aed57610aec6106df565b5b610af6826106ce565b9050602081019050919050565b6000610b16610b1184610ad2565b61073f565b905082815260208101848484011115610b3257610b316106c9565b5b610b3d84828561078b565b509392505050565b600082601f830112610b5a57610b596106c4565b5b8135610b6a848260208601610b03565b91505092915050565b610b7c81610873565b8114610b8757600080fd5b50565b600081359050610b9981610b73565b92915050565b600080600060608486031215610bb857610bb76106ba565b5b600084013567ffffffffffffffff811115610bd657610bd56106bf565b5b610be286828701610b45565b935050602084013567ffffffffffffffff811115610c0357610c026106bf565b5b610c0f868287016107dc565b9250506040610c2086828701610b8a565b9150509250925092565b60008115159050919050565b610c3f81610c2a565b82525050565b6000602082019050610c5a6000830184610c36565b92915050565b7f4e487b7100000000000000000000000000000000000000000000000000000000600052602260045260246000fd5b60006002820490506001821680610ca757607f821691505b602082108103610cba57610cb9610c60565b5b50919050565b60008190508160005260206000209050919050565b60006020601f8301049050919050565b600082821b905092915050565b600060088302610d227fffffffffffffffffffffffffffffffffffffffffffffffffffffffffffffffff82610ce5565b610d2c8683610ce5565b95508019841693508086168417925050509392505050565b6000819050919050565b6000610d69610d64610d5f84610913565b610d44565b610913565b9050919050565b6000819050919050565b610d8383610d4e565b610d97610d8f82610d70565b848454610cf2565b825550505050565b600090565b610dac610d9f565b610db7818484610d7a565b505050565b5b81811015610ddb57610dd0600082610da4565b600181019050610dbd565b5050565b601f821115610e2057610df181610cc0565b610dfa84610cd5565b81016020851015610e09578190505b610e1d610e1585610cd5565b830182610dbc565b50505b505050565b600082821c905092915050565b6000610e4360001984600802610e25565b1980831691505092915050565b6000610e5c8383610e32565b9150826002028217905092915050565b610e7582610894565b67ffffffffffffffff811115610e8e57610e8d6106df565b5b610e988254610c8f565b610ea3828285610ddf565b600060209050601f831160018114610ed65760008415610ec4578287015190505b610ece8582610e50565b865550610f36565b601f198416610ee486610cc0565b60005b82811015610f0c57848901518255600182019150602085019450602081019050610ee7565b86831015610f295784890151610f25601f891682610e32565b8355505b6001600288020188555050505b505050505050565b610f4781610913565b82525050565b600082825260208201905092915050565b6000610f6982610894565b610f738185610f4d565b9350610f838185602086016108b0565b610f8c816106ce565b840191505092915050565b6000604082019050610fac6000830185610f3e565b8181036020830152610fbe8184610f5e565b90509392505050565b7f4e487b7100000000000000000000000000000000000000000000000000000000600052601160045260246000fd5b600061100182610913565b915061100c83610913565b925082820390508181111561102457611023610fc7565b5b92915050565b7f4e487b7100000000000000000000000000000000000000000000000000000000600052603260045260246000fd5b600081905092915050565b7f737472696e67204d657373616765000000000000000000000000000000000000600082015250565b600061109a600e83611059565b91506110a582611064565b600e82019050919050565b60006110bb8261108d565b9150819050919050565b60006110d082610894565b6110da8185611059565b93506110ea8185602086016108b0565b80840191505092915050565b600061110282846110c5565b915081905092915050565b6000819050919050565b6000819050919050565b61113261112d8261110d565b611117565b82525050565b60006111448285611121565b6020820191506111548284611121565b6020820191508190509392505050565b600060ff82169050919050565b600061117c82611164565b915061118783611164565b9250828201905060ff8111156111a05761119f610fc7565b5b92915050565b6111af8161110d565b82525050565b6111be81611164565b82525050565b60006080820190506111d960008301876111a6565b6111e660208301866111b5565b6111f360408301856111a6565b61120060608301846111a6565b95945050505050565b7f696e76616c6964207369676e6174757265206c656e6774680000000000000000600082015250565b600061123f601883610f4d565b915061124a82611209565b602082019050919050565b6000602082019050818103600083015261126e81611232565b905091905056fea2646970667358221220442c45a42d6c451864a12a4309105d8178d06fbe881d4aea5e4e5cad6f48df2c64736f6c63430008110033",
  "linkReferences": {},
  "deployedLinkReferences": {}
}