{
  "_format": "hh-sol-artifact-1",
  "contractName": "SignedMessage",
  "sourceName": "contracts/SignedMessage.sol",
  "abi": [
    {
      "inputs": [],
      "stateMutability": "nonpayable",
      "type": "constructor"
    },
    {
      "anonymous": false,
      "inputs": [
        {
          "indexed": true,
          "internalType": "address",
          "name": "from",
          "type": "address"
        },
        {
          "indexed": false,
          "internalType": "uint256",
          "name": "timestamp",
          "type": "uint256"
        },
        {
          "indexed": false,
          "internalType": "string",
          "name": "message",
          "type": "string"
        }
      ],
      "name": "NewMessage",
      "type": "event"
    },
    {
      "inputs": [],
      "name": "getMessage",
      "outputs": [
        {
          "internalType": "string",
          "name": "",
          "type": "string"
        }
      ],
      "stateMutability": "view",
      "type": "function"
    },
    {
      "inputs": [
        {
          "internalType": "string",
          "name": "_message",
          "type": "string"
        }
      ],
      "name": "sendMessage",
      "outputs": [],
      "stateMutability": "nonpayable",
      "type": "function"
    },
    {
      "inputs": [
        {
          "internalType": "bytes",
          "name": "_sign",
          "type": "bytes"
        },
        {
          "internalType": "string",
          "name": "_mesg",
          "type": "string"
        },
        {
          "internalType": "uint256",
          "name": "_num",
          "type": "uint256"
        },
        {
          "internalType": "address",
          "name": "_address",
          "type": "address"
        }
      ],
      "name": "verifyAddressFromTypedSign",
      "outputs": [
        {
          "internalType": "bool",
          "name": "",
          "type": "bool"
        }
      ],
      "stateMutability": "pure",
      "type": "function"
    }
  ],
  "bytecode": "0x60806040526040518060400160405280601881526020017f6772656574696e67732066726f6d2074686520636861696e0000000000000000815250600090816200004a9190620003d4565b503480156200005857600080fd5b506200008860405180606001604052806025815260200162001254602591396200008e60201b620002981760201c565b6200056e565b6200012e81604051602401620000a591906200054a565b6040516020818303038152906040527f41304fac000000000000000000000000000000000000000000000000000000007bffffffffffffffffffffffffffffffffffffffffffffffffffffffff19166020820180517bffffffffffffffffffffffffffffffffffffffffffffffffffffffff83818316178352505050506200013160201b60201c565b50565b60008151905060006a636f6e736f6c652e6c6f679050602083016000808483855afa5050505050565b600081519050919050565b7f4e487b7100000000000000000000000000000000000000000000000000000000600052604160045260246000fd5b7f4e487b7100000000000000000000000000000000000000000000000000000000600052602260045260246000fd5b60006002820490506001821680620001dc57607f821691505b602082108103620001f257620001f162000194565b5b50919050565b60008190508160005260206000209050919050565b60006020601f8301049050919050565b600082821b905092915050565b6000600883026200025c7fffffffffffffffffffffffffffffffffffffffffffffffffffffffffffffffff826200021d565b6200026886836200021d565b95508019841693508086168417925050509392505050565b6000819050919050565b6000819050919050565b6000620002b5620002af620002a98462000280565b6200028a565b62000280565b9050919050565b6000819050919050565b620002d18362000294565b620002e9620002e082620002bc565b8484546200022a565b825550505050565b600090565b62000300620002f1565b6200030d818484620002c6565b505050565b5b81811015620003355762000329600082620002f6565b60018101905062000313565b5050565b601f82111562000384576200034e81620001f8565b62000359846200020d565b8101602085101562000369578190505b6200038162000378856200020d565b83018262000312565b50505b505050565b600082821c905092915050565b6000620003a96000198460080262000389565b1980831691505092915050565b6000620003c4838362000396565b9150826002028217905092915050565b620003df826200015a565b67ffffffffffffffff811115620003fb57620003fa62000165565b5b620004078254620001c3565b6200041482828562000339565b600060209050601f8311600181146200044c576000841562000437578287015190505b620004438582620003b6565b865550620004b3565b601f1984166200045c86620001f8565b60005b8281101562000486578489015182556001820191506020850194506020810190506200045f565b86831015620004a65784890151620004a2601f89168262000396565b8355505b6001600288020188555050505b505050505050565b600082825260208201905092915050565b60005b83811015620004ec578082015181840152602081019050620004cf565b60008484015250505050565b6000601f19601f8301169050919050565b600062000516826200015a565b620005228185620004bb565b935062000534818560208601620004cc565b6200053f81620004f8565b840191505092915050565b6000602082019050818103600083015262000566818462000509565b905092915050565b610cd6806200057e6000396000f3fe608060405234801561001057600080fd5b50600436106100415760003560e01c8063469c811014610046578063b15ee30514610062578063ce6d41de14610092575b600080fd5b610060600480360381019061005b9190610651565b6100b0565b005b61007c600480360381019061007791906107cf565b610143565b6040516100899190610889565b60405180910390f35b61009a610206565b6040516100a79190610923565b60405180910390f35b6100f06040518060400160405280601681526020017f257320776176656420772f206d657373616765202573000000000000000000008152503383610331565b3373ffffffffffffffffffffffffffffffffffffffff167f0ff94fec3112de81726d79117e091c7c9d47da8a38c73e8cec7ee350a61898a64283604051610138929190610954565b60405180910390a250565b60008060405160200161015590610a27565b60405160208183030381529060405280519060200120905060008585604051602001610182929190610a99565b6040516020818303038152906040528051906020012090508373ffffffffffffffffffffffffffffffffffffffff166101e383836040516020016101c7929190610aec565b60405160208183030381529060405280519060200120896103d0565b73ffffffffffffffffffffffffffffffffffffffff161492505050949350505050565b60606000805461021590610b47565b80601f016020809104026020016040519081016040528092919081815260200182805461024190610b47565b801561028e5780601f106102635761010080835404028352916020019161028e565b820191906000526020600020905b81548152906001019060200180831161027157829003601f168201915b5050505050905090565b61032e816040516024016102ac9190610923565b6040516020818303038152906040527f41304fac000000000000000000000000000000000000000000000000000000007bffffffffffffffffffffffffffffffffffffffffffffffffffffffff19166020820180517bffffffffffffffffffffffffffffffffffffffffffffffffffffffff838183161783525050505061048b565b50565b6103cb83838360405160240161034993929190610b87565b6040516020818303038152906040527fe0e9ad4f000000000000000000000000000000000000000000000000000000007bffffffffffffffffffffffffffffffffffffffffffffffffffffffff19166020820180517bffffffffffffffffffffffffffffffffffffffffffffffffffffffff838183161783525050505061048b565b505050565b6000806000806103df856104b4565b809450819550829350505050601b8160ff16101561040757601b816104049190610c08565b90505b601b8160ff161415801561041f5750601c8160ff1614155b156104305760009350505050610485565b600186828585604051600081526020016040526040516104539493929190610c5b565b6020604051602081039080840390855afa158015610475573d6000803e3d6000fd5b5050506020604051035193505050505b92915050565b60008151905060006a636f6e736f6c652e6c6f679050602083016000808483855afa5050505050565b600080600060418451146104c757600080fd5b60008060006020870151925060408701519150606087015160001a90508083839550955095505050509193909250565b6000604051905090565b600080fd5b600080fd5b600080fd5b600080fd5b6000601f19601f8301169050919050565b7f4e487b7100000000000000000000000000000000000000000000000000000000600052604160045260246000fd5b61055e82610515565b810181811067ffffffffffffffff8211171561057d5761057c610526565b5b80604052505050565b60006105906104f7565b905061059c8282610555565b919050565b600067ffffffffffffffff8211156105bc576105bb610526565b5b6105c582610515565b9050602081019050919050565b82818337600083830152505050565b60006105f46105ef846105a1565b610586565b9050828152602081018484840111156106105761060f610510565b5b61061b8482856105d2565b509392505050565b600082601f8301126106385761063761050b565b5b81356106488482602086016105e1565b91505092915050565b60006020828403121561066757610666610501565b5b600082013567ffffffffffffffff81111561068557610684610506565b5b61069184828501610623565b91505092915050565b600067ffffffffffffffff8211156106b5576106b4610526565b5b6106be82610515565b9050602081019050919050565b60006106de6106d98461069a565b610586565b9050828152602081018484840111156106fa576106f9610510565b5b6107058482856105d2565b509392505050565b600082601f8301126107225761072161050b565b5b81356107328482602086016106cb565b91505092915050565b6000819050919050565b61074e8161073b565b811461075957600080fd5b50565b60008135905061076b81610745565b92915050565b600073ffffffffffffffffffffffffffffffffffffffff82169050919050565b600061079c82610771565b9050919050565b6107ac81610791565b81146107b757600080fd5b50565b6000813590506107c9816107a3565b92915050565b600080600080608085870312156107e9576107e8610501565b5b600085013567ffffffffffffffff81111561080757610806610506565b5b6108138782880161070d565b945050602085013567ffffffffffffffff81111561083457610833610506565b5b61084087828801610623565b93505060406108518782880161075c565b9250506060610862878288016107ba565b91505092959194509250565b60008115159050919050565b6108838161086e565b82525050565b600060208201905061089e600083018461087a565b92915050565b600081519050919050565b600082825260208201905092915050565b60005b838110156108de5780820151818401526020810190506108c3565b60008484015250505050565b60006108f5826108a4565b6108ff81856108af565b935061090f8185602086016108c0565b61091881610515565b840191505092915050565b6000602082019050818103600083015261093d81846108ea565b905092915050565b61094e8161073b565b82525050565b60006040820190506109696000830185610945565b818103602083015261097b81846108ea565b90509392505050565b600081905092915050565b7f737472696e67204d657373616765000000000000000000000000000000000000600082015250565b60006109c5600e83610984565b91506109d08261098f565b600e82019050919050565b7f75696e74323536206e756d000000000000000000000000000000000000000000600082015250565b6000610a11600b83610984565b9150610a1c826109db565b600b82019050919050565b6000610a32826109b8565b9150610a3d82610a04565b9150819050919050565b6000610a52826108a4565b610a5c8185610984565b9350610a6c8185602086016108c0565b80840191505092915050565b6000819050919050565b610a93610a8e8261073b565b610a78565b82525050565b6000610aa58285610a47565b9150610ab18284610a82565b6020820191508190509392505050565b6000819050919050565b6000819050919050565b610ae6610ae182610ac1565b610acb565b82525050565b6000610af88285610ad5565b602082019150610b088284610ad5565b6020820191508190509392505050565b7f4e487b7100000000000000000000000000000000000000000000000000000000600052602260045260246000fd5b60006002820490506001821680610b5f57607f821691505b602082108103610b7257610b71610b18565b5b50919050565b610b8181610791565b82525050565b60006060820190508181036000830152610ba181866108ea565b9050610bb06020830185610b78565b8181036040830152610bc281846108ea565b9050949350505050565b600060ff82169050919050565b7f4e487b7100000000000000000000000000000000000000000000000000000000600052601160045260246000fd5b6000610c1382610bcc565b9150610c1e83610bcc565b9250828201905060ff811115610c3757610c36610bd9565b5b92915050565b610c4681610ac1565b82525050565b610c5581610bcc565b82525050565b6000608082019050610c706000830187610c3d565b610c7d6020830186610c4c565b610c8a6040830185610c3d565b610c976060830184610c3d565b9594505050505056fea26469706673582212209ffcd6cd8729e3f02afe2eb97ab62bf88242684cd0b8caf95f178def9da3f16164736f6c63430008110033596f20796f2c204920616d206120636f6e747261637420616e64204920616d20736d617274",
  "linkReferences": {},
  "deployedLinkReferences": {}
}